:100000000C94D4000C94FC000C94FC000C94FC00A8
:100010000C94FC000C94FC000C94FC000C94FC0070
:100020000C94FC000C94FC000C947D070C94EC07E1
:100030000C94FC000C94FC000C94FC000C94FC0050
:100040000C94FC000C94FC000C94FC000C94FC0040
:100050000C94FC000C94FC000C94FC000C941E0A04
:100060000C94FC000C94FC000C94FC000C94FC0020
:100070000C94FC000C94FC000C94FC000C94FC0010
:100080000C94FC000C94680A0C94FC000C94FC008A
:100090000C94FC000C94FC000C94FC000C94FC00F0
:1000A0000C94FC000C94FC000C94FC00000000007C
:1000B000240027002A002D00300000000000250049
:1000C00028002B002E0031000000000200090F0064
:1000D00000030401000C000000000000000000000C
:1000E00000000000000000080B00020202000009EE
:1000F0000400000102020000052400100105240193
:1001000001010424020605240600010705810310ED
:10011000004009040100020A000000070502024035
:1001200000000705830240000004030904120100D7
:1001300002EF020140412337800001010203014127
:10014000726475696E6F204C4C430041726475692E
:100150006E6F204D6963726F00000000002300265F
:100160000029002C002F00040404040403040502E9
:100170000202020403020202020606060606060442
:10018000040202020404040802011040804010200E
:10019000408040800802040180402010020110804D
:1001A0001020404020005D0B11241FBECFEFDAE08D
:1001B000DEBFCDBF22E0A6E4B1E001C01D92A23FA8
:1001C000B207E1F711E0A0E0B1E0EAE2F1E302C03A
:1001D00005900D92A634B107D9F710E0C4EDD0E038
:1001E00004C02197FE010E944F17C33DD107C9F7F4
:1001F0000E94F60B0C9493180C940000ABEBB1E04A
:1002000011968C93119790E0FC01EA57FE4FE49110
:100210001496EC931497FC01E959FE4FE491F0E039
:10022000EE0FFF1FE75AFE4F8591949113969C9312
:100230008E93129708950F931F93CF93DF93E091BE
:10024000C302F091C40240916A01808510E0481712
:1002500008F064C0142F11700091690101114FC0A2
:10026000842F90E0880F991FE80FF91F0184F28511
:10027000E02D2CEE3FEF112311F024E130E0C0918E
:100280006701D09168012C0F3D1FC90163E470E044
:100290000E940817E617F70760F0C90168E270E0EE
:1002A0000E9408176F5F7F4F81E090E06E177F0715
:1002B00010F52C0F3D1FC90163E470E00E94081780
:1002C000E617F70750F0C90168E270E00E940817CE
:1002D0006F5F7F4F6E177F0760F42C0F3D1FC901C2
:1002E00063E470E00E940817E617F707E8F41FEFD1
:1002F00015C082E090E090936601809365010F5FE6
:1003000000936901809165019091660108171906B3
:1003100028F0109269014F5F40936A01812FDF91AD
:10032000CF911F910F910895C90168E270E00E947A
:1003300008176F5F7F4F6E177F07C8F283E090E06A
:10034000DACFFC0180916401882311F13FB7F89462
:1003500082E08093E9002091F200822F90E018164D
:10036000190614F481E090E0882339F0289A44E6D5
:10037000409363014091F1004083222339F02091A2
:10038000F200211103C02BE62093E8003FBF08953F
:100390008FEF9FEF08952FB7F89483E08093E900E3
:1003A0009091E800892F807295FF04C09091F2002F
:1003B00080E4891B2FBF089580915B0181110DC0DE
:1003C00082E08093570184E08093580110925A0193
:1003D0001092590181E080935B0187E591E00895D7
:1003E000409151015091520120914F0130915001A3
:1003F00042175307B4F49091E8009570E1F390919F
:10040000E80092FD19C08093F10080915101909114
:10041000520101968F739927892B19F48EEF8093DF
:10042000E800809151019091520101969093520100
:100430008093510181E0089580E00895EF92FF924A
:100440000F931F93CF93DF93F82E192FE62E042FCF
:1004500081E0860F880F0E94F00183E00E94F00186
:10046000CF2DD12FEC0EFD2EF11CCE15DF05B9F0EE
:1004700007FF13C0FE0184910E94F001182F80E055
:100480000E94F001812321968111EFCFDF91CF915E
:100490001F910F91FF90EF9008958881EDCF81E03B
:1004A000F5CFDF92EF92FF920F931F93CF93DF93DD
:1004B000D82E8A01EB017B01E40EF51ECE15DF0577
:1004C00059F0D7FE12C0FE0184910E94F0012196DE
:1004D0008111F4CF0FEF1FEFC801DF91CF911F9172
:1004E0000F91FF90EF90DF9008958881EECF0F93EA
:1004F0001F93CF93DF931F92CDB7DEB782E089833E
:1005000042E450E067EE70E080E80E9451020E94F1
:10051000DC01DC0112960D911C910115110589F089
:10052000D801ED91FC910280F381E02DBE016F5F57
:100530007F4FC801099597FD04C0F801008511851A
:10054000ECCF89810F90DF91CF911F910F9108958A
:10055000615030F02091F100FC0120830196F8CF2A
:10056000289A84E6809363010895CF93DF931F92C6
:10057000CDB7DEB76983DC01ED91FC910280F38198
:10058000E02D41E050E0BE016F5F7F4F09950F9075
:10059000DF91CF91089583E08093E9008091F2008C
:1005A000882319F08AE38093E80008950E94CB0124
:1005B00090E00895CF93DF931F92CDB7DEB7FC0193
:1005C0008485958597FD08C02FEF3FEF35872487F9
:1005D0000F90DF91CF910895CE0101960E94A10165
:1005E000019719F4898190E0F3CF8FEF9FEFF0CF5F
:1005F0000F931F93CF93DF931F92CDB7DEB78C017C
:10060000FC018485958597FF0BC0CE0101960E9461
:10061000A101019771F4898190E0F80195878487A1
:10062000F801848595850F90DF91CF911F910F91EF
:1006300008958FEF9FEFF1CFFC018485958597FD9D
:100640000BC09FB7F89482E08093E9008091F2009C
:100650009FBF90E0019608959FB7F89482E0809341
:10066000E9008091F2009FBF90E0089581508F30A3
:1006700008F047C0E82FF0E0E05CFC4F0C944F1707
:100680005D0361034F035503590381038103810314
:1006900064036A036E037203780381037C03809111
:1006A00080008F77809380000895809180008F7DF7
:1006B000F9CF80918000877FF5CF84B58F7784BD97
:1006C000089584B58F7DFBCF809190008F778093C4
:1006D00090000895809190008F7DF9CF80919000D7
:1006E000877FF5CF8091C0008F778093C0000895F9
:1006F0008091C0008F7DF9CF8091C200877F809369
:10070000C2000895CF93DF93282F30E0F901E8531A
:10071000FF4F8491F901EA57FE4FD491F901E9594D
:10072000FE4FC491CC23A1F081110E943603EC2F1F
:10073000F0E0EE0FFF1FE75AFE4FA591B491EC9148
:10074000ED2381E090E009F480E0DF91CF910895FE
:1007500080E090E0FACF1F93CF93DF93282F30E013
:10076000F901E853FF4F8491F901EA57FE4FD49104
:10077000F901E959FE4FC491CC23A9F0162F81113C
:100780000E943603EC2FF0E0EE0FFF1FE654FF4F00
:10079000A591B4918FB7F894EC91111108C0D09540
:1007A000DE23DC938FBFDF91CF911F910895DE2B65
:1007B000F8CFCF93DF9390E0FC01EA57FE4F2491EE
:1007C00089599E4FFC0184918823C9F090E0880FDD
:1007D000991FFC01E455FF4FA591B491FC01E6542B
:1007E000FF4FC591D49161110DC09FB7F8948C91C2
:1007F000209582238C938881282328839FBFDF91B3
:10080000CF910895623051F49FB7F8943C91822FB4
:10081000809583238C93E8812E2BEFCF8FB7F894AC
:10082000EC912E2B2C938FBFEACF3FB7F894809199
:10083000470190914801A0914901B0914A0126B524
:10084000A89B05C02F3F19F00196A11DB11D3FBF08
:10085000BA2FA92F982F8827BC01CD01620F711DD7
:10086000811D911D42E0660F771F881F991F4A95D1
:10087000D1F708958F929F92AF92BF92CF92DF925D
:10088000EF92FF924B015C010E9415046B017C0109
:100890000E9415046C197D098E099F09683E7340FA
:1008A00081059105A8F321E0821A9108A108B108F9
:1008B00088EEC80E83E0D81EE11CF11C811491045F
:1008C000A104B10429F7FF90EF90DF90CF90BF9083
:1008D000AF909F908F9008958F929F92AF92BF920A
:1008E000CF92DF92EF92FF920F931F93CF93DF93FC
:1008F0006C017B018A0180910B01882309F45CC0A3
:1009000080916401882309F457C08091550180FFCC
:1009100005C08091E00082608093E000E801B12C86
:100920008AEFA82E93E0892E2AE3922E209711F4C5
:10093000BB20D9F10E94CB0181110AC0AA94AA2040
:10094000D9F161E070E080E090E00E943A04EECFDF
:100950008C171D0611F00CF08C2F9FB7F894809225
:10096000E9002091E80025FD02C09FBFDFCF282FBE
:1009700030E0C21BD30BF701815020F0419140932E
:10098000F100FACFE20EF31EBB2021F09092E800B6
:10099000B12CEBCF8091E80085FDE7CF9092E80085
:1009A000BB24B394209709F3F3CF5D9A84E6809338
:1009B0005601101611063CF081E090E0F601938399
:1009C000828310E000E0C801DF91CF911F910F9169
:1009D000FF90EF90DF90CF90BF90AF909F908F905F
:1009E00008950F931F93CF93DF93EC018B018885BC
:1009F0009985029749F46130710509F436C04CF5C8
:100A000060E00115110591F188859985049749F4F5
:100A10000130110509F451C09CF50115110509F4C7
:100A20003BC088859985059709F0C5C00A30110536
:100A300008F0C1C0F801E15EFA4F0C944F17710540
:100A40007B0589059B05B305B505BB05C505D30524
:100A5000D9056230710591F060E003301105A1F60F
:100A60008C850E94AB0360E005C061E08C850E942C
:100A7000AB0361E08E850E94AB03C6CF61E0F0CF8F
:100A80000230110501F10330110559F661E08C8542
:100A90000E94AB0360E01CC061E08C850E94AB0348
:100AA00060E08E850E94AB0361E088890E94AB0301
:100AB00060E08A890E94AB03B4CF60E08C850E941D
:100AC000AB0361E0EECF60E08C850E94AB0361E098
:100AD0008E850E94AB0360E088890E94AB0361E0D1
:100AE000E8CF60E08C850E94AB0361E08E850E94B8
:100AF000AB0361E009C060E08C850E94AB0361E05C
:100B00008E850E94AB0360E088890E94AB0360E0A1
:100B10000DC060E08C850E94AB0361E08E850E9471
:100B2000AB0360E088890E94AB0361E08A890E9480
:100B3000AB0361E011C060E08C850E94AB0361E013
:100B40008E850E94AB0360E088890E94AB0361E060
:100B50008A890E94AB0360E08C89DF91CF911F915D
:100B60000F910C94AB0361E0E7CF61E08C850E94AC
:100B7000AB0360E0E5CF61E08C850E94AB0360E0F1
:100B80008E850E94AB0361E0DFCF61E08C850E941F
:100B9000AB0360E08E850E94AB0361E088890E9410
:100BA000AB0360E0D5CF61E08C850E94AB0360E0D1
:100BB0009DCF60E0F9CFDF91CF911F910F91089504
:100BC00061E088E00E94AB0368EC70E080E090E0B8
:100BD0000E943A0460E088E00C94AB03FC019B01A6
:100BE00024513109C90163E470E00E940817E61737
:100BF000F70758F0C90168E270E00E9408176F5FBC
:100C00007F4F81E06E177F0708F480E00895FC01B4
:100C10009B012C5E3F4FC90163E470E00E940817FE
:100C2000E617F70758F0C90168E270E00E9408175C
:100C30006F5F7F4F81E06E177F0708F480E00895B3
:100C40002F923F924F925F926F927F928F929F92DC
:100C5000AF92BF92CF92DF92EF92FF920F931F93CA
:100C6000CF93DF9300D01F92CDB7DEB789832A01DF
:100C70001901862F90E0880F991F09966091C30291
:100C80007091C402860F971F9B838A83EE20A1F187
:100C9000912CC12CD12C76019981991609F477C039
:100CA000B201EA81FB81808191810E94070688233D
:100CB00009F457C0EA81FB81A280B380B101C5016C
:100CC0000E94EE05882369F0CC0CDD1CEE1CFF1C95
:100CD0006894C0F88A819B8104969B838A8393944D
:100CE000DBCFB801C5010E94EE058823D1F1CC0C01
:100CF000DD1CEE1CFF1CEECF812C912C5401839443
:100D0000C12CD12C76019981992309F440C0B201FC
:100D1000EA81FB81808191810E940706882309F185
:100D2000EA81FB8162807380B101C3010E94EE05FC
:100D3000882389F0C828D928EA28FB288A819B8142
:100D400004969B838A83880C991CAA1CBB1C9981DE
:100D500091509983D8CFB801C3010E94EE0581114B
:100D6000EDCF0F900F900F90DF91CF911F910F91CA
:100D7000FF90EF90DF90CF90BF90AF909F908F90BB
:100D80007F906F905F904F903F902F900895C0920A
:100D9000BF02D092C002E092C102F092C20281E092
:100DA000E0CF3F924F925F926F927F928F929F928D
:100DB000AF92BF92CF92DF92EF92FF920F931F9369
:100DC000CF93DF9300D000D000D0CDB7DEB7382E60
:100DD0005A8349833C832B8338010091C3021091CD
:100DE000C402862F90E0880F991F0996800F911FEB
:100DF0009E838D83812C912C54018394C12CD12C02
:100E00007601332009F452C0ED81FE81408051808B
:100E100069817A81C2010E940706882341F1C828AE
:100E2000D928EA28FB282D813E812E5F3F4FF8010B
:100E3000808590E0880F991F0996800F911F2817D1
:100E4000390768F4B301ED81FE81828193810E94AC
:100E5000EE05882399F02D813E812C5F3F4F880C51
:100E6000991CAA1CBB1C3A943E832D83CACF6B816C
:100E70007C81C2010E9407068111D5CF26960FB64C
:100E8000F894DEBF0FBECDBFDF91CF911F910F91C0
:100E9000FF90EF90DF90CF90BF90AF909F908F909A
:100EA0007F906F905F904F903F900895C092BF02E7
:100EB000D092C002E092C102F092C20281E0DECF85
:100EC000CF93DF93FC0101900020E9F73197AF0148
:100ED000481B590BBC018BE691E00E946C04EC01AD
:100EE00042E050E06BE271E08BE691E00E946C041E
:100EF0008C0F9D1FDF91CF9108951F920F920FB617
:100F00000F9211248F939F938091E1009091E100C3
:100F1000937F9093E10083FF0FC01092E90091E06E
:100F20009093EB001092EC0092E39093ED001092FE
:100F3000640198E09093F00082FF22C093E09093C8
:100F4000E9009091F200992319F09AE39093E80058
:100F500090915601992341F09091560191509093B0
:100F60005601911101C05D9890916301992341F060
:100F700090916301915090936301911101C0289861
:100F800084FF18C08091E2008E7E81608093E20031
:100F90008091E1008F7E8093E100809155018E7EEB
:100FA0008061809355019F918F910F900FBE0F909C
:100FB0001F90189580FFF7CF8091E2008E7E8061B0
:100FC0008093E2008091E1008E7E8093E100809129
:100FD00055018E7E8160E5CF1F920F920FB60F9262
:100FE0001124CF92DF92EF92FF920F931F932F93D2
:100FF0003F934F935F936F937F938F939F93AF93A1
:10100000BF93EF93FF93CF93DF93CDB7DEB76C978A
:10101000DEBFCDBF1092E9008091E80083FF25C0BC
:1010200068E0CE0145960E94A80282EF8093E80016
:101030008D8987FF39C09091E80090FFFCCF982FF1
:10104000907609F034C19E894F89588D2F89F88C8C
:10105000911131C0803861F5809154018093F10085
:101060001092F1008EEF8093E8006C960FB6F89422
:10107000DEBF0FBECDBFDF91CF91FF91EF91BF914A
:10108000AF919F918F917F916F915F914F913F9120
:101090002F911F910F91FF90EF90DF90CF900F90C5
:1010A0000FBE0F901F9018959EEF9093E800C7CF4A
:1010B0001092F100D5CF913059F48111D3CF413046
:1010C000510581F6809154018D7F80935401CACFE0
:1010D000933049F48111C6CF4130510519F6809102
:1010E00054018260F2CF953041F48091E80080FF96
:1010F000FCCF20682093E300B5CF963009F0A9C05B
:101100000B8D1C8D22E01092E9001092520110927A
:101110005101F2122EC01092500110924F010E9404
:1011200077021F8299E09983FA8291E09E8390EA88
:1011300098879AEF99872091510130915201275F4A
:101140003F4F3C832B838D831092E9001092520114
:10115000109251011093500100934F0149E050E06B
:10116000BE016F5F7F4F80E00E9451020E947702B4
:1011700079CF1093500100934F010E94DC01DC01F4
:1011800012960D911C910115110509F451C1D80158
:10119000ED91FC910480F581E02DBE016B5E7F4FE7
:1011A000C8010995009709F03EC1F8010085118535
:1011B000EACFF3E0FF120EC08F89882309F440C004
:1011C000823061F440E86DE08BE491E00E941E0201
:1011D000811148CF81E28093EB0047CF813029F421
:1011E00040E86BE08FE391E0F1CF833099F70E9404
:1011F000DC01DC011296ED90FC908E010F5F1F4F19
:101200006801E114F10479F0D701ED91FC910680B9
:10121000F781E02DB801C7010995080F111DF701ED
:10122000E084F184EECFD8011C92F60101900020F9
:10123000E9F73197BF016C197D0940E0C601C6CFBF
:1012400069E271E0FB01449150E080E80E945102A4
:1012500009CF973009F4BECF983021F481E0809314
:10126000F10000CF993009F0FDCE837009F0B2CFC4
:10127000E3E1F1E081E031E096E32191222371F096
:101280008093E9003093EB00DF0111972C912093BC
:10129000EC009093ED008F5F873079F78EE78093B5
:1012A000EA001092EA008F8980936401DBCE8B8D77
:1012B0009C8D1092E900109252011092510190936E
:1012C000500180934F01898D811192C08E899D8933
:1012D000913A49F4813209F07DCF47E050E064E073
:1012E00071E080E0B3CF913209F074CF833269F4BA
:1012F0008F89988DB0E0A0E0809300019093010168
:10130000A0930201B0930301ADCE803269F48091C5
:10131000E80082FFFCCF67E084E091E00E94A80231
:101320008BEF8093E8009ECE823209F09BCE8F89AE
:1013300080930B01EEEFFFE7859194918B3F9C4DDD
:1013400051F1E0E0F8E08091040190910501A09155
:101350000601B0910701803B9440A105B105F1F46D
:1013600080910B0180FD1AC0EE3F8AE0F80789F5F5
:1013700087E797E791838083809160008093530192
:1013800088E19BE00FB6F894A895809360000FBEAB
:101390009093600067CEEEEFFAE0D5CF8081918127
:1013A0008737974709F05ECEA895809160008861E5
:1013B000809360008091530180936000EE3F2AE0AB
:1013C000F20789F08091FE0A9091FF0A9183808351
:1013D00049CE808191818737980751F29093FF0A17
:1013E0008093FE0AC5CF1092FF0A1092FE0A3ACEF1
:1013F0000E94DC01DC0112960D911C910115110572
:1014000009F4E8CED801ED91FC910190F081E02D36
:10141000BE016B5E7F4FC8010995811123CEF80193
:1014200000851185EBCF181619060CF41BCED2CE11
:10143000F1E0FF12BECE6DE271E004CF1F920F9279
:101440000FB60F9211242F933F938F939F93AF93D7
:10145000BF9380914B0190914C01A0914D01B091AF
:101460004E013091460123E0230F2D3758F50196A8
:10147000A11DB11D2093460180934B0190934C0117
:10148000A0934D01B0934E01809147019091480186
:10149000A0914901B0914A010196A11DB11D80930F
:1014A000470190934801A0934901B0934A01BF912D
:1014B000AF919F918F913F912F910F900FBE0F9001
:1014C0001F90189526E8230F0296A11DB11DD2CFBB
:1014D0001F920F920FB60F9211242F933F934F93A9
:1014E0005F936F937F938F939F93AF93BF93EF938C
:1014F000FF93E091BD01F091BE0190818091BF0109
:1015000098232091C0013091C1012F3F320731F063
:101510002F5F3F4F3093C1012093C0018091BB01E9
:10152000811135C0911116C02091C0013091C101C7
:101530002536310558F01092C2013093C501209331
:10154000C40181E08093C3018093BB011092C1016B
:101550001092C0018091D102882341F08091D00285
:10156000911161C061E0811161C0479AFF91EF91D3
:10157000BF91AF919F918F917F916F915F914F91AB
:101580003F912F910F900FBE0F901F901895809153
:10159000BB018130A1F49923E9F2E091C3018E0FE0
:1015A0008093C301F0E0EE0FFF1FE554FE4F209142
:1015B000C0013091C1013287218782E0C5CF80917F
:1015C000BB01823039F5911119C0E091C30181E06E
:1015D000E03720F08093C20183E0B6CF8E0F809376
:1015E000C301F0E0EE0FFF1FE554FE4F2091C00154
:1015F0003091C1013287218781E0A6CF2091C001BF
:101600003091C1012536310508F4A4CF83E08093E1
:10161000BB01A0CF8091BB01833009F09BCF992300
:1016200009F494CF97CF882321F060E00E94AB03A8
:101630009DCF47989BCFEF92FF920F931F93CF932D
:10164000DF93EC01F62F8A01790190E080E030E031
:10165000E0E0DE01AE0FB11D2C91222341F0320FEC
:101660002E9F800D911D11241C92FE1315C0332353
:1016700099F0532F5695850F911D632F70E00E94AE
:101680000817DE01A60FB11D3C93D8013C91311122
:101690000EC06C9390E080E0EF5FFE17D0F681E023
:1016A000DF91CF911F910F91FF90EF900895D70197
:1016B0003C91332371F380E0F3CFEF92FF920F93CD
:1016C0001F93CF93DF93EBE6F1E01382128288EE53
:1016D00093E0A0E0B0E084839583A683B7838DE197
:1016E00091E091838083CFEFDFEFD587C4870BEB49
:1016F00011E01093E2020093E10280E00E94FE00FC
:10170000E0EDF2E0108211821093C4020093C30254
:1017100085E00E94FE0004EA12E082E0E82EF12C4F
:10172000F801F182E082D583C48317821682138682
:101730001286148615861686178684E090E09187B7
:10174000808761E00E94D90360E0F80180850E94F3
:10175000AB0380E293E0F801938782878AE190E00F
:101760000E946E17EC011B861A86198218821E8A47
:101770001F8A188E198E88EC90E09F838E8383E0F9
:1017800090E09D878C87FF86EE8661E00E94D903FA
:1017900061E08E850E94D903198A188A1B8A1A8AE9
:1017A0001D8A1C8AF986E886F801D383C2832E81BC
:1017B0003F81032E000C440B550B60E077E883E972
:1017C00093E00E943017CA01B90120E233E040E003
:1017D00050E00E9430172A833B834C835D83DF9166
:1017E000CF911F910F91FF90EF900895CF93DF93CA
:1017F000CDB7DEB7E9970FB6F894DEBF0FBECDBF09
:10180000789484B5826084BD84B5816084BD85B5DB
:10181000826085BD85B5816085BD80916E008160E7
:1018200080936E001092810080918100826080938D
:10183000810080918100816080938100809180008F
:1018400081608093800080919100826080939100FC
:1018500080919100816080939100809190008160DF
:10186000809390008091C10084608093C10080913A
:10187000C10082608093C1008091C100816080932B
:10188000C1008091C30081608093C3008091C0003B
:1018900082608093C0008091C20081608093C2000A
:1018A00080917A00846080937A0080917A008260CF
:1018B00080937A0080917A00816080937A00809191
:1018C0007A00806880937A0010926401109254012B
:1018D000109255018091D70081608093D70080EAF3
:1018E0008093D80089B5806189BD89B5826089BD42
:1018F00009B400FEFDCF61E070E080E090E00E945E
:101900003A048091D8008F7C80618093D8008091C8
:10191000E000807F8093E0008091E1008E7E8093E4
:10192000E1008DE08093E200559A209A5D98289816
:101930008FEF9FEF9093780180937701F894109246
:10194000900089E08093910080E293E09093990069
:101950008093980090939B0080939A00109295003A
:101960001092940084E0809371008091BB018330D9
:1019700011F41092BB01789460E08091BC010E9448
:10198000D9038091D00291E09093D10261E0882345
:1019900009F4EBC00E94D90361E088E00E94D903FA
:1019A00062E086E00E94D90362E087E00E94D903EA
:1019B000412C07E8502E03E9602E03E0702E9E01B3
:1019C0002F5F3F4F19018091A4029091A502892BAE
:1019D00009F0CDC086E00E948203892B09F0C7C0C0
:1019E00042E050E05093A5024093A4028FEF9FEF96
:1019F0009093A9028093A8021092AB021092AA02BF
:101A000060E08091AC020E94AB031092B002109291
:101A1000B1021092B2021092B3022091A40230914E
:101A2000A50222303105D9F1EE24EA94FE2C2115CD
:101A3000310519F0EE24E394F12C8091AA029091E3
:101A4000AB0201969093AB028093AA024091A80248
:101A50005091A9024115510509F4A3C0481759072F
:101A60000CF09FC022E030E03093A5022093A40246
:101A70004FEF5FEF5093A9024093A8021092AB0280
:101A80001092AA0260E08091AC020E94AB03109217
:101A9000B0021092B1021092B2021092B302809181
:101AA000BB01833009F0F8C28091C201882309F498
:101AB0000BC11092C2011092C30180E48093BE0258
:101AC0001092B5021092B4021092B9021092B802AC
:101AD0001092B7021092B6021092BF021092C0028A
:101AE0001092C1021092C2021092BD021092BC026A
:101AF0008091BE0286FDAAC2E091C302F091C402A9
:101B00002085822F8F7B843009F06DC18385948579
:101B1000865891098C35910508F065C185859685B3
:101B2000243009F0F8C08197489708F05CC1878598
:101B300090890897089708F056C181E08093BE020B
:101B40008091C7029091C8029093B7028093B60229
:101B50008091CB029091CC029093B9028093B8020D
:101B60008091C5029091C6026DC28DE013CF809125
:101B7000A4029091A502019709F04FCF87E00E943F
:101B80008203892B09F049CFA2E0B0E0B093A5020F
:101B9000A093A402EFEFFFEFF093A902E093A80255
:101BA0002BCF0091A6021091A70221303105E9F454
:101BB000D80116962D913C91032E000C440B550B29
:101BC000C301B2010E943017CA01B9012091AE02CF
:101BD0003091AF02032E000C440B550B0E943017BE
:101BE000F8012283338344835583F1E0EF16F10437
:101BF00009F04DC0D801ED92FC920E941504D80165
:101C00005696CD90DD90ED90FC9059979B01AC01DC
:101C10002C193D094E095F0969017A0112968D90D0
:101C20009D90AD90BC901597C814D904EA04FB04AC
:101C300020F356966D937D938D939C9359971A96A6
:101C40008D919C911B972D913C91119721303105DD
:101C500079F1892B21F1F80182859385019793878A
:101C60008287D8011A968D919C911B9718962D9179
:101C70003C9164E070E02530310511F46AE070E0D9
:101C80000E941C17BC01C8010E94F10408CFEF207C
:101C9000E09409F0B2CFF80111821082AECF16960F
:101CA0008D919C9117971B969C938E931A97D3CFE7
:101CB0000196F80193878287268137812817390793
:101CC00081F613861286CDCF1092BE028091B402A7
:101CD0009091B5029093C6028093C5028091B8029C
:101CE0009091B902B0E0A0E08093CB029093CC0237
:101CF000A093CD02B093CE028091B6029091B7022C
:101D0000B0E0A0E08093C7029093C802A093C902FC
:101D1000B093CA02D5CE825491098F9708F063C060
:101D2000E12C00E312E020E936E040E352E063E01A
:101D300080E20E942006882309F455C0E091C30286
:101D4000F091C402E157FF4F808191810897089775
:101D500008F049C08091BF029091C0024091C10239
:101D60005091C202242F30E03093B9022093B80280
:101D70009C012E3EB7E83B0799F485E190E09093F3
:101D8000B5028093B402852F90E09093B7028093C0
:101D9000B60280E290E09093BD028093BC0256C1EF
:101DA0009095891310C090E09093B7028093B6028B
:101DB000852F809548130CC088E090E09093B50281
:101DC0008093B402E6CF3093B7022093B602F0CFEF
:101DD00084E190E09093B5028093B4024093B802FE
:101DE0005093B902D6CFE091C302F091C40280852E
:101DF000843609F0B1C083859485C397859708F030
:101E0000ABC0858596854A97439708F0A5C0E12C1D
:101E100000EB11E020E135E040EB51E063E080E1D0
:101E20000E942006882309F497C0F090BF02CF2CAF
:101E3000D090C002F9E0AF2EB12CE2E0CE16E0E285
:101E4000DE0619F1EDE0AE2EB12CFAEACF16FAE576
:101E5000DF06D9F07CE0A72EB12C24E5C21622E3E0
:101E6000D20699F06BE0A62EB12C33E0C31631E018
:101E7000D30659F0AEE0AA2EB12C43E2C4164BECC7
:101E8000D40619F05AE0A52EB12CFD248F2D829591
:101E90008F70F8265F2D5F70F52EE12C00EB11E0BE
:101EA00020E135E040EB51E063E280E20E94200651
:101EB000882309F451C08091BF029091C002A09183
:101EC000C102B091C2029C0144E0369527954A9523
:101ED000E1F73093B7022093B6022A2F30E0309317
:101EE000B9022093B802282F2A272927382F3F70BC
:101EF000F31619F034E03093BE026AE0A616B1047E
:101F000079F03091BE0230613093BE024091BA0246
:101F10005091BB02C42AD52AD092BB02C092BA0209
:101F20002B1729F08091BE0284608093BE02E0915D
:101F3000C302F091C4028185928588329A4028F4C8
:101F40008091BE0281608093BE02B092B502A092E1
:101F5000B40280E390E01FCFE091C302F091C4028D
:101F60008085803209F0A3C0EE24E3940CE013E0F6
:101F70002CE137E044E051E061E08FE00E94200670
:101F8000882309F494C0E091C302F091C402DF01F8
:101F9000A95BBF4F8D919C910497059708F087C06E
:101FA00080E88093BE024091BF025091C0026091D0
:101FB000C1027091C202142F1370DB01CA0102E04A
:101FC000B695A795979587950A95D1F79093B60200
:101FD0001092B7029C0133273093B9022093B802C4
:101FE000218532852536344008F05EC02091CF022D
:101FF0002F5F2093CF0240FF11C032E83093BE0222
:102000003091CB028095381719F086E88093BE0294
:10201000832F90E09093B9028093B802223028F089
:102020008091BE0281608093BE028FE090E0909329
:10203000BD028093BC02115082E190E0123010F09A
:1020400083E090E09093B5028093B4028091BF0248
:102050009091C002A091C102B091C2022FB7F89432
:1020600040914B0150914C0160914D0170914E0196
:102070002FBF8D35F2E49F07A105B10509F0C2C558
:102080000E94E0058EE291E00E9460078091BB0112
:10209000833011F41092BB0180E090E0892B09F4A9
:1020A00092CC0E9400008FCC1092CF02BECFE09164
:1020B000C302F091C4028385948584974A9708F0FF
:1020C00055C020852A3129F02A3219F0203209F032
:1020D0004DC0858596850897089708F047C030E081
:1020E000C901019797FDC9019595879508E512E00B
:1020F00028E532E040EB54E063E00E94D1068823FB
:10210000A9F18091BF029091C002A091C102B0914B
:10211000C202282F2F77E7E0B695A7959795879568
:10212000EA95D1F7E091C302F091C402418552854E
:102130004438534018F431E03093BE0230E030931D
:10214000B9022093B8029093B7028093B60220851B
:1021500030E0C901019797FDC90195958795909346
:10216000BD028093BC0283E190E06CCF81E080935C
:102170006A0189E793E09093680180936701109268
:1021800069010E941B01813009F06AC0C12CD12C69
:10219000760110E0E091C302F091C4029085809135
:1021A0006A018917E0F40E941B01082F0E941B019D
:1021B00001110BC0813009F053C0CC0CDD1CEE1CAA
:1021C000FF1C6894C0F81F5FE5CF013009F048C0DC
:1021D000811146C0CC0CDD1CEE1CFF1CF4CF812FFE
:1021E00090E09093BD028093BC02C092BF02D09257
:1021F000C002E092C102F092C2028C2D8F7390E077
:102200009093B9028093B802960146E036952795DF
:102210004A95E1F72F7133273093B7022093B60226
:10222000960122273071232B31F4805C9F4F9093CD
:10223000B9028093B80280E88093BE02D3FE03C047
:1022400088E88093BE0281859285833E984028F479
:102250008091BE0281608093BE028FE090E0F2CE5A
:10226000E091C302F091C4028385948588974D97CD
:1022700008F046C0858596850C970B9708F040C0FE
:1022800083E080936A018CEB91E0909368018093E6
:102290006701109269010E941B01813089F50E943B
:1022A0001B01182F81112CC0C12CD12C7601E0917B
:1022B000C302F091C402908580916A01891708F0E9
:1022C00071C00E941B01B82E1330B1F00E941B0197
:1022D000082F133021F40E941B01081311C051E094
:1022E000B51256C001110CC0CC0CDD1CEE1CFF1C3D
:1022F0006894C0F81F5FDBCF0E941B01B81631F352
:10230000E091C302F091C40220852C3311F02430F7
:1023100051F4838594858638910508F48CC0833EFA
:10232000910508F4A5C0E091C302F091C402808534
:10233000843209F40AC1823209F035C1818592855F
:102340008C3E9C4508F082CE83859485089707973C
:1023500008F07CCEE55BFF4F80819181089707975D
:1023600008F074CE81E08093BE028091C702909104
:10237000C8029093B7028093B6028091CB029091ED
:10238000CC029093B9028093B80285E090E05ACED7
:10239000B110B6CF013009F0B3CFCC0CDD1CEE1C70
:1023A000FF1CA8CF812F90E09093BD028093BC02C8
:1023B000C092BF02D092C002E092C102F092C2026B
:1023C0002C2D30E08D2D1432F8F480E88093BE027D
:1023D0003093B9022093B8028D2D90E09093B7020C
:1023E0008093B602E0FE03C088E88093BE02818538
:1023F000928583379A4028F48091BE028160809351
:10240000BE0280E190E01ECE90E99093BE02D7FE1E
:1024100003C098E99093BE023093B9022093B802AA
:102420008F7790E09093B7028093B602F092BB0250
:10243000E092BA02DCCF8D32910508F474CF6CE1E2
:1024400075E2A7E0CA2ED12C8D34910508F06BCF30
:1024500085859685243091F44D97469708F063CF93
:10246000878590890797089708F05DCF81E866CB4C
:1024700068E670E156E0C52ED12CEACF0E94EE0549
:10248000882309F450CFEE24E39406E212E02CE214
:1024900036E044EF51E063E08CE10E94200688239F
:1024A00009F441CFE091C302F091C402E158FF4F1B
:1024B000808191810797089708F035CF80E8809355
:1024C000BE028091BF029091C002A091C102B09162
:1024D000C2028C019D01F4E036952795179507956A
:1024E000FA95D1F7B8011093B9020093B8028C01A4
:1024F0009D0144E136952795179507954A95D1F7A3
:102500001093B7020093B60244E050E020E0362F6B
:102510003F70230FE4E076956795EA95E1F7415027
:102520005109A9F782278F709927AA27BB27892BE2
:102530008A2B8B2B19F084E88093BE02D092B502CF
:10254000C092B4028CE190E026CC838594858D57AF
:1025500091098735910538F585859685CE978C97B5
:1025600010F5E12C0EE012E02AE236E04EE052E0F7
:1025700063E080E10E9420068823A9F08091BF02D9
:102580002091C00230E03093B9022093B80290E06D
:102590009093B7028093B60280E190E09093BD02E1
:1025A0008093BC02F2CEE091C302F091C402808518
:1025B000982F9F7D943419F0863009F08BC02385C5
:1025C0003485225431092F32310508F083C0258526
:1025D0003685215431092F32310508F07BC0863011
:1025E000B1F481E08093BE028091C7029091C8024D
:1025F0009093B7028093B6028091CB029091CC0267
:102600009093B9028093B80281E190E01BCDE12C58
:1026100009E212E02BE736E049E252E063E084365B
:10262000B9F580E10E942006882309F453C0809107
:10263000BF029091C0029093B7028093B6022BE73D
:1026400036E049E252E063E080E20E9420068823FF
:1026500009F440C09091BF023091C0022091C102A4
:102660008091C2022095821731F09095931719F04E
:1026700094E09093BE02982F832F9093B902809399
:10268000B80280E390E09093BD028093BC02BCCF7F
:1026900080E20E9420068823E9F08091C1023091F7
:1026A000C2022091BF029091C0022093B602909383
:1026B000B702932F9095891308C090E09093B902C8
:1026C0008093B80280E290E0DECF8093B80230932E
:1026D000B902F8CFE091C302F091C40283859485DA
:1026E0002085243469F50B970A9750F585859685E2
:1026F0008A974E9728F5EE24E3940EEE12E026E634
:1027000038E04EEE52E063E080E20E94200688232B
:10271000B9F0E091C302F091C402E157FF4F80810C
:1027200091810B970A9760F480E88093BE0280E263
:1027300090E09093BD028093BC0289E190E082CC4E
:10274000E091C302F091C4022085838594850297AD
:10275000049708F061C0243209F05EC08585968533
:102760000F970C9708F058C0EE24E39407E011E0AF
:1027700029E232E04EE950E063E080E10E94200669
:10278000882309F449C0E091C302F091C402DF013B
:10279000A15BBF4F8D919C9102970497E8F580E86B
:1027A0008093BE024091BF029091C002242F392F26
:1027B000592F52955F709F7064E0369527956A9502
:1027C000E1F72F704F708FE0852789278227481700
:1027D00019F084E88093BE0261857285683F71417B
:1027E00028F48091BE0282608093BE025093B602AC
:1027F0001092B702E0E19E9FC0011124822B9093BA
:10280000B9028093B80287E190E09093B50280937B
:10281000B40280E190E0BFCAE091C302F091C4022B
:1028200020858385948540970D97B8F52432A9F5C6
:10283000858596854597409780F5E12C07EA15E058
:1028400024ED31E046E152E063E080E10E942006A1
:10285000882319F1E091C302F091C402DF01A15B6A
:10286000BF4F8D919C9108970797B8F48091BF0254
:102870009091C00298279F3F81F4218532852431B1
:10288000354018F491E09093BE0290E09093B90225
:102890008093B80286E190E0B8CF8090C302909018
:1028A000C402D40118968C91803709F056C05401A7
:1028B000F401E452FF4FF9AFE8AF20E030E040E030
:1028C00010E000E0F12CE12C1FAAD5011B96ED9140
:1028D000FC911C971D96CD90DC90C601BF010E9413
:1028E0000817DB01EC0DFD1D71973E97C8F5512FC0
:1028F000602F7F2D8E2D9FA901E00E945517E32F99
:10290000F42F152F062FF72EE82E9FAB129708F401
:10291000216084E0A80EB11CA8ADB9ADAA16BB0613
:10292000A1F688E190E09093B5028093B40287E32A
:1029300090E09093BD028093BC0280E18093BE0240
:102940002093BA02E093BB02F093BF025093C002FF
:102950006093C1027093C20279CB843108F4ECC059
:1029600082E3F10111928A95E9F7D40118962C912E
:102970002250330B60E044E0842F90E082179307ED
:102980009CF4880F991FF401E80FF91F81858233A9
:1029900048F4F101E80FF11D90819F5F9083681763
:1029A00008F4682F4E5FE8CF1EAA1DAA9E012B5C7B
:1029B0003F4FAE014A5C5F4FC1010E941B0B882351
:1029C00009F4BAC082E3F10111928A95E9F7A09166
:1029D000C302B091C40218962C9118972250330B61
:1029E00060E043E0842F90E0821793079CF4880F07
:1029F000991FFD01E80FF91F8185823348F4F10129
:102A0000E80FF11D90819F5F9083681708F4682F8D
:102A10004E5FE8CF1CAA1BAA9E012D5C3F4FAE0162
:102A20004C5C5F4FC1010E941B0BE091C302F0910F
:102A3000C402F084F6948F2D90E09C01225031095D
:102A40003093BD022093BC02039715E096958795BD
:102A50001A95E1F7D82E8DA9811139C08BA9882349
:102A600009F46AC0FA94FA94A3E0CA2EE12CB2E306
:102A7000BB2E0EA90B9D800111242CA92B9D90012A
:102A800011244BA94B9DA00111248F2DF0E2FF15BD
:102A900008F480E26C2D0E94D106882309F44CC012
:102AA00020E4C20EE39430EEF30EDE1410F78CA98E
:102AB0009BA98927982789279093BB028093BA0204
:102AC00042E050E05093B5024093B402BFCAFA947A
:102AD000FA94E3E0BE2EC12CF2E3AF2E0EA90A9DBC
:102AE000800111242DA92A9D900111244CA94A9DF1
:102AF000A00111248F2D60E26F1508F480E2E12C13
:102B00006B2D0E9420068823B9F080E4B80EC39490
:102B100090EEF90EDC1410F78EA99DA9892798274D
:102B200089279093BB028093BA02A1E0B0E0B093F2
:102B3000B502A093B4028ACAE090C302F090C40226
:102B4000F7010085063008F481CADD24D39425EC12
:102B50003DE94CE151E810E07AE0C72E8D2D90E080
:102B6000BC016E5F7F4F60177107CCF5660F771F52
:102B7000F701E60FF71FA184B284880F991FF701B0
:102B8000E80FF91F81859285CA9CD001CB9CB00DBE
:102B90001124FC0163E0EE0FFF1F6A95E1F7AE1709
:102BA000BF0788F0C89EB001C99E700D1124C501F1
:102BB000E3E0880F991FEA95E1F7E2E068177907EB
:102BC00018F0E1E001C0E0E063E971E080E091E04D
:102BD0000E94BC169B01AC012E27D394BFCF20933B
:102BE000BF023093C0024093C1025093C20280E200
:102BF00090E09093BD028093BC021092B5021092B7
:102C0000B40224CA8D3D20E49207A105B105A9F4C0
:102C10000E94E00564EF71E080E090E00E943A04D9
:102C20000E94E00564EF71E080E090E00E943A04C9
:102C30000E94E00587E391E027CA853933E49307D2
:102C4000A105B10509F048C02FB7F89480914B0158
:102C500090914C01A0914D01B0914E012FBF8093F6
:102C6000B0029093B102A093B202B093B30200916C
:102C7000A6021091A702D80116962D913C91032E21
:102C8000000C440B550BC301B2010E943017CA015E
:102C9000B9012091AE023091AF02032E000C440B1B
:102CA000550B0E943017F8012283338344835583E8
:102CB0001092A5021092A4021092A9021092A802EA
:102CC0001092AB021092AA0261E08091AC020E94C5
:102CD000AB038DE391E0D8C985359044A105B105DA
:102CE00009F0D4C92FB7F89480914B0190914C0111
:102CF000A0914D01B0914E012FBF8093B0029093EF
:102D0000B102A093B202B093B3020091A602109157
:102D1000A702D80116962D913C91032E000C440B6E
:102D2000550BC301B2010E943017CA01B9012091AD
:102D3000AE023091AF02032E000C440B550B0E94E3
:102D40003017F801228333834483558321E030E038
:102D50003093A5022093A4021092A9021092A80217
:102D60001092AB021092AA0261E08091AC020E9424
:102D7000AB0382E491E088C9DB018F939F930E94AB
:102D8000EE16BF91AF91A29F800D911DA39F900D54
:102D9000B29F900D11240895A1E21A2EAA1BBB1B0D
:102DA000FD010DC0AA1FBB1FEE1FFF1FA217B30717
:102DB000E407F50720F0A21BB30BE40BF50B661F2D
:102DC000771F881F991F1A9469F7609570958095F1
:102DD00090959B01AC01BD01CF0108950E94F916A9
:102DE000A59F900DB49F900DA49F800D911D11245F
:102DF0000895A29FB001B39FC001A39F700D811DD4
:102E00001124911DB29F700D811D1124911D0895F3
:102E1000AA1BBB1B51E107C0AA1FBB1FA617B70700
:102E200010F0A61BB70B881F991F5A95A9F780951C
:102E30009095BC01CD01089597FB072E16F40094E0
:102E400007D077FD09D00E94081707FC05D03EF493
:102E5000909581959F4F0895709561957F4F089546
:102E6000052E97FB1EF400940E94471757FD07D0CC
:102E70000E94CC1607FC03D04EF40C9447175095D3
:102E80004095309521953F4F4F4F5F4F0895909556
:102E90008095709561957F4F8F4F9F4F0895EE0FEE
:102EA000FF1F0590F491E02D0994002E083090F05A
:102EB000982F872F762F652F542F432F322F2227BD
:102EC0000850F4CF220F331F441F551F661F771F72
:102ED000881F991F0A95B2F7002D08950F931F932D
:102EE000CF93DF938230910510F482E090E0E0917F
:102EF000F002F091F10230E020E0B0E0A0E0309785
:102F000099F42115310509F44AC0281B390B2430E6
:102F10003105D8F58A819B816115710589F1FB0125
:102F200093838283FE0111C040815181028113810C
:102F300048175907E0F04817590799F4109761F0BE
:102F400012960C93129713961C933296CF01DF9131
:102F5000CF911F910F9108950093F0021093F10209
:102F6000F4CF2115310551F04217530738F0A9016C
:102F7000DB019A01BD01DF01F801C1CFEF01F9CFFB
:102F80009093F1028093F002CDCFFE01E20FF31F88
:102F9000819391932250310939832883D7CF20918F
:102FA000EE023091EF02232B41F420910E0130917B
:102FB0000F013093EF022093EE0220910C0130912B
:102FC0000D012115310541F42DB73EB74091100197
:102FD00050911101241B350BE091EE02F091EF02AC
:102FE000E217F307A0F42E1B3F0B2817390778F0E0
:102FF000AC014E5F5F4F2417350748F04E0F5F1F3F
:103000005093EF024093EE02819391939FCFF0E0B3
:10301000E0E09CCFCF93DF930097E9F0FC0132977B
:1030200013821282A091F002B091F102ED0130E022
:1030300020E01097A1F420813181820F931F20910D
:10304000EE023091EF022817390709F061C0F093C2
:10305000EF02E093EE02DF91CF910895EA01CE17DF
:10306000DF07E8F54A815B819E0141155105B1F703
:10307000E901FB83EA8349915991C40FD51FEC17ED
:10308000FD0761F4808191810296840F951FE9010B
:1030900099838883828193819B838A83F0E0E0E037
:1030A00012968D919C9113970097B9F52D913C91B3
:1030B0001197CD010296820F931F2091EE0230915D
:1030C000EF022817390739F6309751F51092F102BF
:1030D0001092F002B093EF02A093EE02BCCFD38324
:1030E000C28340815181840F951FC817D90761F4AD
:1030F0004E5F5F4F88819981480F591F51834083EC
:103100008A819B81938382832115310509F0B0CF99
:10311000F093F102E093F0029ECFFD01DC01C0CFFD
:0A31200013821282D7CFF894FFCF7C
:10312A00FFFFFFFF00E10000000000000000F202C4
:10313A00800000C1808100000000000000B5026C20
:10314A0004D602CB021C03DA02F8020D0A00504F21
:10315A00574552204F4E00494E50555400444F5740
:06316A004E00555000006C
:00000001FF
